{
  "contractName": "Crowdsale",
  "abi": [
    {
      "constant": true,
      "inputs": [],
      "name": "rate",
      "outputs": [
        {
          "name": "",
          "type": "uint256"
        }
      ],
      "payable": false,
      "stateMutability": "view",
      "type": "function"
    },
    {
      "constant": true,
      "inputs": [],
      "name": "weiRaised",
      "outputs": [
        {
          "name": "",
          "type": "uint256"
        }
      ],
      "payable": false,
      "stateMutability": "view",
      "type": "function"
    },
    {
      "constant": true,
      "inputs": [],
      "name": "wallet",
      "outputs": [
        {
          "name": "",
          "type": "address"
        }
      ],
      "payable": false,
      "stateMutability": "view",
      "type": "function"
    },
    {
      "constant": true,
      "inputs": [],
      "name": "token",
      "outputs": [
        {
          "name": "",
          "type": "address"
        }
      ],
      "payable": false,
      "stateMutability": "view",
      "type": "function"
    },
    {
      "inputs": [
        {
          "name": "_rate",
          "type": "uint256"
        },
        {
          "name": "_wallet",
          "type": "address"
        },
        {
          "name": "_token",
          "type": "address"
        }
      ],
      "payable": false,
      "stateMutability": "nonpayable",
      "type": "constructor"
    },
    {
      "anonymous": false,
      "inputs": [
        {
          "indexed": true,
          "name": "purchaser",
          "type": "address"
        },
        {
          "indexed": true,
          "name": "beneficiary",
          "type": "address"
        },
        {
          "indexed": false,
          "name": "value",
          "type": "uint256"
        },
        {
          "indexed": false,
          "name": "amount",
          "type": "uint256"
        }
      ],
      "name": "TokenPurchase",
      "type": "event"
    }
  ],
  "bytecode": "0x608060405234801561001057600080fd5b5060405160608061035683398101806040528101908080519060200190929190805190602001909291908051906020019092919050505060008311151561005657600080fd5b600073ffffffffffffffffffffffffffffffffffffffff168273ffffffffffffffffffffffffffffffffffffffff161415151561009257600080fd5b600073ffffffffffffffffffffffffffffffffffffffff168173ffffffffffffffffffffffffffffffffffffffff16141515156100ce57600080fd5b8260028190555081600160006101000a81548173ffffffffffffffffffffffffffffffffffffffff021916908373ffffffffffffffffffffffffffffffffffffffff160217905550806000806101000a81548173ffffffffffffffffffffffffffffffffffffffff021916908373ffffffffffffffffffffffffffffffffffffffff1602179055505050506101ee806101686000396000f300608060405260043610610062576000357c0100000000000000000000000000000000000000000000000000000000900463ffffffff1680632c4e722e146100675780634042b66f14610092578063521eb273146100bd578063fc0c546a14610114575b600080fd5b34801561007357600080fd5b5061007c61016b565b6040518082815260200191505060405180910390f35b34801561009e57600080fd5b506100a7610171565b6040518082815260200191505060405180910390f35b3480156100c957600080fd5b506100d2610177565b604051808273ffffffffffffffffffffffffffffffffffffffff1673ffffffffffffffffffffffffffffffffffffffff16815260200191505060405180910390f35b34801561012057600080fd5b5061012961019d565b604051808273ffffffffffffffffffffffffffffffffffffffff1673ffffffffffffffffffffffffffffffffffffffff16815260200191505060405180910390f35b60025481565b60035481565b600160009054906101000a900473ffffffffffffffffffffffffffffffffffffffff1681565b6000809054906101000a900473ffffffffffffffffffffffffffffffffffffffff16815600a165627a7a723058209a6ab2e33c12265334f5c11be243efcf1665a06bde2197742d04a541036c28390029",
  "source": "pragma solidity ^0.4.22;\n\nimport \"./SafeMath.sol\";\nimport \"./SafeERC20.sol\";\n\ncontract Crowdsale {\n  using SafeMath for uint256;\n  using SafeERC20 for ERC20;\n\n  // The token being sold\n  ERC20 public token;\n\n  // Address where funds are collected\n  address public wallet;\n\n  uint256 public rate;\n\n  // Amount of wei raised\n  uint256 public weiRaised;\n\n  event TokenPurchase(\n    address indexed purchaser,\n    address indexed beneficiary,\n    uint256 value,\n    uint256 amount\n  );\n\n  constructor(uint256 _rate, address _wallet, ERC20 _token) public {\n    require(_rate > 0);\n    require(_wallet != address(0));\n    require(_token != address(0));\n\n    rate = _rate;\n    wallet = _wallet;\n    token = _token;\n  }\n\n  // -----------------------------------------\n  // Crowdsale external interface\n  // -----------------------------------------\n\n  function _preValidatePurchase( address _beneficiary, uint256 _weiAmount ) internal {\n    require(_beneficiary != address(0));\n    require(_weiAmount != 0);\n  }\n\n  function _postValidatePurchase(address _beneficiary, uint256 _weiAmount) internal {\n    // optional override\n  }\n\n  function _deliverTokens(address _beneficiary, uint256 _tokenAmount) internal {\n    token.safeTransfer(_beneficiary, _tokenAmount);\n  }\n\n  function _processPurchase(address _beneficiary, uint256 _tokenAmount ) internal {\n    _deliverTokens(_beneficiary, _tokenAmount);\n  }\n\n  function _getTokenAmount(uint256 _weiAmount) internal view returns (uint256) {\n    return _weiAmount.mul(rate);\n  }\n\n  function _forwardFunds() internal {\n    wallet.transfer(msg.value);\n  }\n\n}\n\ncontract ProjectOblioCrowdsale is Crowdsale {\n\n    using SafeMath for uint256;\n\n    uint256 public openingTime;\n    uint256 public closingTime;    \n    \n    uint256 public MIN_DONATION = 100000000000000000;\n    uint256 public KARMA_RATE = 1;\n    \n    uint256 public completedAt; //Time Crowdsale completed\n    address[] public accountList;\n    \n    struct Account {\n        uint256 karma_rate;\n        bool isEntity;\n        bytes data;\n    }\n    \n    mapping(address => Account) AccountStruts;\n    \n    //Events\n    event AccountCreated(address _beneficiary, bytes _data, uint256 karma_rate);\n    \n    constructor(uint256 _rate, address _wallet, ERC20 _token, uint256 _openingTime, uint256 _closingTime) public \n        Crowdsale(_rate, _wallet, _token) {\n\n        require(_openingTime >= block.timestamp);\n        require(_closingTime >= _openingTime);\n\n        openingTime = _openingTime;\n        closingTime = _closingTime;\n    }\n\n    // -----------------------------------------\n    // TimeCrowdsale external interface\n    // -----------------------------------------\n\n    /**\n    * @dev Reverts if not in crowdsale time range.\n    */\n    modifier onlyWhileOpen {\n        require(block.timestamp >= openingTime && block.timestamp <= closingTime);\n        _;\n    }\n\n    function hasClosed() public view returns (bool) {\n        return block.timestamp > closingTime;\n    }\n\n    // -----------------------------------------\n    // Project Oblio external interface\n    // -----------------------------------------\n    \n    /**\n    * @dev fallback function ***DO NOT OVERRIDE***\n    */\n    function () external payable {\n        buyTokens(msg.sender);\n    }\n\n    function buyTokens(address _beneficiary) public payable {\n\n        uint256 weiAmount = msg.value;\n        require(weiAmount > MIN_DONATION);\n        _preValidatePurchase(_beneficiary, weiAmount);\n\n        // calculate token amount to be created\n        uint256 tokens = _getTokenAmount(weiAmount);\n\n        // update state\n        weiRaised = weiRaised.add(weiAmount);\n\n        //_processPurchase(_beneficiary, tokens);\n        emit TokenPurchase(msg.sender, _beneficiary, weiAmount, tokens);\n\n        createAccount(msg.sender, 1, msg.data);\n        _forwardFunds();\n\n        _postValidatePurchase(_beneficiary, weiAmount);\n    }    \n        \n    function createAccount(address ownerAddress, uint256 karma, bytes data) public payable {\n        require( ! AccountStruts[ownerAddress].isEntity, \"Address exist already\");\n        \n        AccountStruts[ownerAddress].isEntity = true;\n        AccountStruts[ownerAddress].karma_rate = karma;\n        AccountStruts[ownerAddress].data = data;\n        \n        accountList.push(ownerAddress);\n        emit AccountCreated(ownerAddress, data, karma);\n    }    \n    \n    function getAccount(address _beneficiary) public constant returns (bool isEntity, bytes data){\n        require(_beneficiary != address(0), \"Beneficiary wallet address is invalid\");\n        Account memory userInfo = AccountStruts[_beneficiary];\n        return (userInfo.isEntity, userInfo.data );\n    }\n    \n    function GetAccountCount() public constant returns (uint) {\n        return accountList.length;\n    }\n\n  function _preValidatePurchase(address _beneficiary, uint256 _weiAmount) internal onlyWhileOpen {\n    super._preValidatePurchase(_beneficiary, _weiAmount);\n  }    \n   \n}",
  "sourcePath": "C:\\Users\\USER\\contract\\Project-Oblio\\contracts\\ProjectOblioCrowdsale.sol",
  "compiler": {
    "name": "solc",
    "version": "0.4.24+commit.e67f0147.Emscripten.clang"
  },
  "schemaVersion": "2.0.1",
  "updatedAt": "2018-06-27T20:21:00.065Z"
}